{
  "_format": "hh-sol-artifact-1",
  "contractName": "CoinFlip",
  "sourceName": "contracts/CoinFlip.sol",
  "abi": [
    {
      "inputs": [],
      "stateMutability": "nonpayable",
      "type": "constructor"
    },
    {
      "inputs": [
        {
          "internalType": "bool",
          "name": "_choice",
          "type": "bool"
        }
      ],
      "name": "flip",
      "outputs": [
        {
          "internalType": "bool",
          "name": "",
          "type": "bool"
        }
      ],
      "stateMutability": "payable",
      "type": "function"
    },
    {
      "inputs": [],
      "name": "owner",
      "outputs": [
        {
          "internalType": "address",
          "name": "",
          "type": "address"
        }
      ],
      "stateMutability": "view",
      "type": "function"
    }
  ],
  "bytecode": "0x608060405234801561001057600080fd5b50336000806101000a81548173ffffffffffffffffffffffffffffffffffffffff021916908373ffffffffffffffffffffffffffffffffffffffff1602179055506103ee806100606000396000f3fe6080604052600436106100295760003560e01c80631d263f671461002e5780638da5cb5b1461005e575b600080fd5b61004860048036038101906100439190610182565b610089565b6040516100559190610224565b60405180910390f35b34801561006a57600080fd5b50610073610149565b6040516100809190610209565b60405180910390f35b60008034116100cd576040517f08c379a00000000000000000000000000000000000000000000000000000000081526004016100c49061023f565b60405180910390fd5b6000806002426100dd9190610312565b1490508215158115151415610140573373ffffffffffffffffffffffffffffffffffffffff166108fc6002346101139190610270565b9081150290604051600060405180830381858888f1935050505015801561013e573d6000803e3d6000fd5b505b80915050919050565b60008054906101000a900473ffffffffffffffffffffffffffffffffffffffff1681565b60008135905061017c816103a1565b92915050565b60006020828403121561019457600080fd5b60006101a28482850161016d565b91505092915050565b6101b4816102ca565b82525050565b6101c3816102dc565b82525050565b60006101d6601a8361025f565b91507f4d7573742073656e6420736f6d652045544820746f20706c61790000000000006000830152602082019050919050565b600060208201905061021e60008301846101ab565b92915050565b600060208201905061023960008301846101ba565b92915050565b60006020820190508181036000830152610258816101c9565b9050919050565b600082825260208201905092915050565b600061027b82610308565b915061028683610308565b9250817fffffffffffffffffffffffffffffffffffffffffffffffffffffffffffffffff04831182151516156102bf576102be610343565b5b828202905092915050565b60006102d5826102e8565b9050919050565b60008115159050919050565b600073ffffffffffffffffffffffffffffffffffffffff82169050919050565b6000819050919050565b600061031d82610308565b915061032883610308565b92508261033857610337610372565b5b828206905092915050565b7f4e487b7100000000000000000000000000000000000000000000000000000000600052601160045260246000fd5b7f4e487b7100000000000000000000000000000000000000000000000000000000600052601260045260246000fd5b6103aa816102dc565b81146103b557600080fd5b5056fea2646970667358221220865b9ce1dc0f662cb31a2471c697dbf290e82a3db575cf3cfe5e38637915953e64736f6c63430008000033",
  "linkReferences": {},
  "deployedLinkReferences": {}
}